:100000000C9456000C9460000C9460000C946000FA
:100010000C9460000C9460000C9460000C946000E0
:100020000C9460000C9460000C9460000C946000D0
:100030000C9460000C9460000C9460000C946000C0
:100040000C9460000C9460000C9460000C946000B0
:100050000C9462000C9460000C9460000C9460009E
:100060000C9460000C9460000C9460000C94600090
:100070000C9460000C9460000C9460000C94600080
:100080000C9460000C9460000C9460000C94600070
:100090000C9460000C9460000C9460000C94600060
:1000A0000C9460000C9460000C94600011241FBE3E
:1000B000CFEFDAE0DEBFCDBF0E9478000C9488005D
:1000C0000C9400001F920F920FB60F9211248F9381
:1000D00080E289B98F910F900FBE0F901F901895F5
:1000E00083B7816083BF08958895089500000895BF
:1000F00078941092800084E08093810081E0809366
:100100006F0090E29AB984B90E9470008895FECF82
:04011000F894FFCF91
:00000001FF
