:10000000B6C00000CFC00000CDC00000CBC00000D3
:10001000C9C00000C7C00000C5C00000C3C00000C8
:10002000C1C00000BFC00000BCC40000BBC00000D5
:10003000B9C00000B7C00000B5C00000B3C00000E8
:10004000B1C00000AFC00000ADC00000ABC00000F8
:10005000A9C00000A7C00000A5C00000A3C0000008
:10006000A1C000009FC000009DC000009BC0000018
:1000700099C0000097C0000095C0000093C0000028
:1000800091C000008FC000008DC000008BC0000038
:1000900089C0000087C0000085C0000083C0000048
:1000A00081C000007FC000007DC0000026034C001E
:1000B00055004600410020004B00650079006200B9
:1000C0006F006100720064002000440065006D0054
:1000D0006F0000001A034C0055004600410020004C
:1000E0004C0069006200720061007200790000003B
:1000F0000403090409022900010100C032090400B7
:10010000000203010100092111010001223F000743
:100110000581030800050705020308000512011008
:100120000100000008EB034220010001020001056C
:10013000010906A101050719E029E7150025017548
:1001400001950881029501750881010508190129A9
:10015000059505750191029501750391011500251D
:1001600065050719002965950675088100C01124E9
:100170001FBECFEFDAE0DEBFCDBF11E0A0E0B1E0FF
:10018000EEE3FEE002C005900D92A430B107D9F76E
:1001900021E0A4E0B1E001C01D92AB31B207E1F76C
:1001A000CBD14BC62DCF9BB19F70892B8BB90895B6
:1001B00084B7877F84BF0FB6F894A89580916000BC
:1001C000886180936000109260000FBE90E080E82C
:1001D0000FB6F89480936100909361000FBE84B1D4
:1001E0008F7184B98DB18F7C8DB985B1806E85B9E1
:1001F0008EB180638EB98AB1806F8AB98BB18F70EE
:100200008BB9B2D36A98729A089580EACCDF81E004
:1002100080930201089580E1C6CFCF9342E061EC64
:1002200081E0DBD2C82F42E060EC82E0D6D2909130
:10023000E20094609093E200882311F0C11102C0A3
:1002400080E901C080E6CF91AECF80910C01909102
:100250000D01009729F0019790930D0180930C01F7
:100260000895FC0193B12CB12095207326959095AB
:10027000907E292B8CB1809598E0DF011D929A9594
:10028000E9F792E0908327FF02C094E003C024FFC7
:1002900004C095E0928391E001C090E026FF05C084
:1002A000DF01A90FB11D36E006C023FF07C0DF0143
:1002B000A90FB11D37E012963C939F5F25FF07C041
:1002C000DF01A90FB11D28E012962C939F5F82FFDA
:1002D00004C0E90FF11D89E082830895982F80FF03
:1002E00002C080E301C080E291FD806892FD8064DD
:1002F0005ACF1F93CF93DF93CDB7DEB728970FB6B2
:10030000F894DEBF0FBECDBF80911401833009F495
:1003100047C030F4813071F0823009F47DC095C05F
:100320008A3009F460C08B3009F447C0893009F085
:100330008CC018C080911301813A09F086C0CE01AB
:1003400001968FDF8091E800877F8093E80068E066
:1003500070E0CE01019682D18091E8008B77809386
:10036000E80073C080911301813209F06EC0809162
:10037000E800877F8093E8008091E80082FD05C057
:10038000809112018111F8CF60C01091F10080912D
:10039000E8008B778093E80055D2812F9FDF55C00E
:1003A00080911301813A09F050C08091E800877F65
:1003B0008093E8008091020140C080911301813256
:1003C00009F043C08091E800877F8093E8003AD22B
:1003D00081E02091150130911601232B09F480E072
:1003E0008093020132C080911301813271F58091B6
:1003F000E800877F8093E80025D2809115019091D5
:100400001601882736E0969587953A95E1F79093FF
:1004100001018093000119C080911301813AA9F470
:100420008091E800877F8093E8008091000190919F
:10043000010196958795969587958093F100809117
:10044000E8008E778093E800FDD128960FB6F894E7
:10045000DEBF0FBECDBFDF91CF911F910895CF9327
:10046000DF93CDB7DEB728970FB6F894DEBF0FBE87
:10047000CDBFCE010196F5DE809100019091010182
:10048000009761F020910C0130910D01232B31F484
:1004900090930D0180930C0121E00CC048E050E0E6
:1004A000BE016F5F7F4F84E091E0BAD421E0892BD9
:1004B00009F420E081E08093E9008091E80085FF65
:1004C00017C02223A9F088E0FE013196A4E0B1E034
:1004D00001900D928A95E1F740E050E068E070E00D
:1004E000CE01019671D08091E8008E778093E8006C
:1004F00028960FB6F894DEBF0FBECDBFDF91CF9127
:10050000089582E08093E9008091E80082FF0CC0AA
:100510008091E80085FF03C08091F100DFDE8091CB
:10052000E8008B778093E800089580911201843071
:1005300011F495DFE6CF08953BDE80E134DE789458
:10054000F4DF54D4FDCF292F332723303105E1F0D8
:1005500058F42130310599F02230310569F589E2EE
:1005600090E024EF30E02CC02132310501F122323D
:10057000310511F58FE390E02FE231E021C082E1F7
:1005800090E02DE131E01CC099278130910549F0C0
:1005900028F0029789F4ECEAF0E005C0E0EFF0E023
:1005A00002C0E4EDF0E0849190E09F0109C089E091
:1005B00090E026E031E004C080E090E020E030E010
:1005C000FA01318320830895CF92DF92EF92FF9258
:1005D0000F931F93CF93DF93EC018B017A0151D1DD
:1005E000811133C0E114F10439F0F7018081918168
:1005F000081B190BC80FD91FC12CD12C01151105CF
:1006000019F18091E80085FD16C08091E8008E7791
:100610008093E800EBD3E114F10449F0F701808105
:100620009181C80ED91ED182C08285E00EC029D129
:10063000882321F30AC089918093F10001501109A8
:10064000FFEFCF1ADF0ADACF80E0DF91CF911F9161
:100650000F91FF90EF90DF90CF90089520911901B6
:1006600030911A012617370748F06115710539F4E2
:100670002091E8002E772093E80001C0B901FC0129
:1006800020E06115710579F1809112018823F1F163
:100690008530F1F18091E80083FD3CC08091E80055
:1006A00082FD2EC08091E80080FFEBCF2091F30007
:1006B0008091F20090E0922B6115710551F0883025
:1006C000910538F421912093F10061507109019650
:1006D000F3CF21E0089709F020E08091E8008E77C1
:1006E0008093E800CECF2111CFCF0AC080911201B4
:1006F000882361F0853061F08091E80083FD0AC0B5
:100700008091E80082FFF2CF80E0089582E00895B2
:1007100083E0089581E008952091190130911A0134
:100720002617370748F06115710539F42091E80064
:100730002E772093E80001C0B901FC0120E061158B
:10074000710591F180911201882309F440C0853030
:1007500009F43FC08091E80083FD3DC08091E8002E
:1007600082FD2FC08091E80080FFE9CF2091F30047
:100770008091F20090E0922B6115710559F088305C
:10078000910540F424912093F10031966150710954
:100790000196F2CF21E0089709F020E08091E8006F
:1007A0008E778093E800CBCF2111CCCF0AC0809107
:1007B0001201882361F0853061F08091E80083FDAB
:1007C0000AC08091E80082FFF2CF80E0089582E0C5
:1007D000089583E0089581E00895982F973068F593
:1007E0009093E900981739F07091EC002091ED009A
:1007F0005091F00003C0242F762F50E021FD02C05D
:100800009F5FECCF3091EB003E7F3093EB00309157
:10081000ED003D7F3093ED003091EB00316030937F
:10082000EB007093EC002093ED005093F0002091CA
:10083000EE0027FDE5CF80E008958F708093E900FA
:1008400081E008958091130187FF11C08091E80035
:1008500082FD05C0809112018111F8CF11C08091F5
:10086000E8008B770BC080911201882349F08091BA
:10087000E80080FFF8CF8091E8008E778093E80051
:1008800008952091E4003091E50095E64091EC0058
:10089000842F817040FF23C08091E80080FD1DC03F
:1008A00080911201882399F0853099F08091EB00B6
:1008B00085FD11C04091E4005091E50024173507F3
:1008C00029F3915011F09A01E1CF84E0089582E07C
:1008D000089583E0089581E0089580E008954091AF
:1008E000E80042FFDDCF08950F931F93CF93DF936E
:1008F0004BD052D0C8EDD0E088818F778883888133
:100900008068888388818F7D888319BC109212014A
:1009100010920E011092100110920F0100EE10E0E3
:10092000F80180818B7F808388818160888342E0A9
:1009300060E080E052DFE1EEF0E080818E7F808336
:10094000E2EEF0E080818160808380818860808336
:10095000F80180818E7F8083888180618883DF9128
:10096000CF911F910F910895E8EDF0E080818F7E87
:100970008083E7EDF0E080818160808384E082BF46
:1009800081E080931101B0CFE8EDF0E080818E7FAF
:1009900080831092E20008951092DA001092E10034
:1009A00008951F920F920FB60F9211242F933F9329
:1009B0004F935F936F937F938F939F93AF93BF9367
:1009C000EF93FF938091E10082FF0AC08091E200E3
:1009D00082FF06C08091E1008B7F8093E10035DCCF
:1009E0008091DA0080FF1BC08091D80080FF17C083
:1009F0008091DA008E7F8093DA008091D90019BC53
:100A000080FF0AC082E089BD09B400FEFDCF81E00D
:100A100080931201FADB03C010921201FCDB80917B
:100A2000E10080FF18C08091E20080FF14C0809137
:100A3000E2008E7F8093E2008091E20080618093EB
:100A4000E2008091D80080628093D80019BC85E0D4
:100A500080931201CAD18091E10084FF2EC0809161
:100A6000E20084FF2AC019BC82E089BD09B400FEFF
:100A7000FDCF8091D8008F7D8093D8008091E100D8
:100A80008F7E8093E1008091E2008F7E8093E20070
:100A90008091E20081608093E20080910E018823C2
:100AA00011F084E007C08091E30087FD02C081E07F
:100AB00001C083E08093120198D18091E10083FF0F
:100AC00022C08091E20083FF1EC08091E100877FF9
:100AD0008093E10082E08093120110920E018091D8
:100AE000E1008E7F8093E1008091E2008E7F809311
:100AF000E2008091E20080618093E20042E060E0E9
:100B000080E06BDE72D1FF91EF91BF91AF919F9129
:100B10008F917F916F915F914F913F912F910F90A6
:100B20000FBE0F901F9018951F93CF93DF93CDB7F3
:100B3000DEB7AA970FB6F894DEBF0FBECDBFE3E1D4
:100B4000F1E08091F100819321E0EB31F207C9F7E8
:100B5000D0DB8091E80083FF30C180911301909138
:100B60001401953009F483C030F49130A9F168F094
:100B7000933091F122C1983009F4EFC0993009F413
:100B8000FBC0963009F019C194C0803821F082383A
:100B900009F013C108C080910F01909110019923B1
:100BA00089F082600FC0809117018F70873008F044
:100BB00004C18093E9008091EB0085FB882780F9D0
:100BC0001092E9009091E800977F9093E80080935D
:100BD000F1001092F100CCC0282F2D7F09F0EDC05C
:100BE000882319F0823061F0E8C0809115018130CE
:100BF00009F0E3C0933009F080E0809310012EC02B
:100C00008091150181112AC0809117018F702FEFFB
:100C1000280F263008F0D1C08093E9002091EB0026
:100C200020FF1CC0933021F48091EB00806214C03F
:100C30009091EB0090619093EB0021E030E0A901EE
:100C400002C0440F551F8A95E2F74093EA001092C4
:100C5000EA008091EB0088608093EB001092E9003D
:100C60008091E800877F8093E800ECDDA6C08111C9
:100C7000A4C0109115011F778091E3008078812B2B
:100C80008093E3008091E800877F8093E800DADDBD
:100C90008091E80080FFFCCF8091E3008068809322
:100CA000E300111102C082E001C083E080931201D1
:100CB00084C08058823008F080C0809115019091E6
:100CC00016018C3D53E0950771F583E08A838AE233
:100CD00089834FB7F894DE01139620E03EE051E29D
:100CE000E32FF0E050935700E49120FF03C0E2951A
:100CF000EF703F5FEF708E2F90E0EA3010F0C796F4
:100D000001C0C0968D939D932F5F243149F74FBF4B
:100D10008091E800877F8093E8006AE270E0CE016E
:100D200001969CDC14C06091170170911801AE010E
:100D30004F5F5F4F08DCBC01892B09F43EC09091E6
:100D4000E800977F9093E80089819A81E5DC8091A3
:100D5000E8008B778093E80030C0803871F580918F
:100D6000E800877F8093E80080910E018093F10076
:100D70008091E8008E7777CF81111FC08091150197
:100D80009091160199270297C4F48091E800877F1B
:100D90008093E8008091150180930E0153DD8091CE
:100DA0000E01811106C08091E30087FD02C081E041
:100DB00001C084E08093120130DA8091E80083FF63
:100DC0000AC08091E800877F8093E8008091EB0063
:100DD00080628093EB00AA960FB6F894DEBF0FBE38
:100DE000CDBFDF91CF911F9108950895CF9380914A
:100DF0001201882399F0C091E900CF709091EC0026
:100E0000892F817090FD80E8C82B1092E9008091B5
:100E1000E80083FD89DECF70C093E900CF9108958B
:100E2000FB01DC0104C08D910190801921F4415037
:0E0E30005040C8F7881B990B0895F894FFCF27
:040E3E00F4010100BA
:00000001FF
