:100000000C9456000C9460000C9460000C946000FA
:100010000C9460000C9460000C9460000C946000E0
:100020000C9460000C9460000C9460000C946000D0
:100030000C9460000C9460000C9460000C946000C0
:100040000C9460000C9460000C9460000C946000B0
:100050000C9462000C9460000C9460000C9460009E
:100060000C9460000C9460000C9460000C94600090
:100070000C9460000C9460000C9460000C94600080
:100080000C9460000C9460000C9460000C94600070
:100090000C9460000C9460000C9460000C94600060
:1000A0000C9460000C9460000C94600011241FBE3E
:1000B000CFEFDAE0DEBFCDBF0E9470000C947D0070
:1000C0000C9400001F920F920FB60F9211248F9381
:1000D00080E289B98F910F900FBE0F901F901895F5
:1000E00078941092800084E08093810081E0809376
:0E00F0006F0080E28AB90000FECFF894FFCFC7
:00000001FF
