:100000000C9456000C9460000C9460000C946000FA
:100010000C9460000C9460000C9460000C946000E0
:100020000C9460000C9460000C9460000C946000D0
:100030000C9460000C9460000C9460000C946000C0
:100040000C9460000C9460000C9460000C946000B0
:100050000C9462000C9460000C9460000C9460009E
:100060000C9460000C9460000C9460000C94600090
:100070000C9460000C9460000C9460000C94600080
:100080000C9460000C9460000C9460000C94600070
:100090000C9460000C9460000C9460000C94600060
:1000A0000C9460000C9460000C94600011241FBE3E
:1000B000CFEFDAE0DEBFCDBF0E9484000C949E003B
:1000C0000C9400001F920F9200905F000F92112479
:1000D0002F938F939F93EF93FF93CF93DF93CDB79E
:1000E000DEB789E290E020E2FC0120830000DF918E
:1000F000CF91FF91EF919F918F912F910F9000924F
:100100005F000F901F901895CF93DF93CDB7DEB7A8
:10011000789480E890E0FC01108281E890E024E08F
:10012000FC0120838FE690E021E0FC0120838AE23D
:1001300090E020E2FC0120830000FECFF894FFCF86
:00000001FF
